:100000000C9412010C9443010C9443010C94430191
:100010000C9443010C9443010C9443010C94430150
:100020000C9443010C9443010C9443010C94E80C90
:100030000C9443010C9443010C9443010C94430130
:100040000C9443010C9443010C9443010C94430120
:100050000C9443010C9443010C9443010C949613AB
:100060000C9443010C9446160C947C160C9443019A
:100070000C9443010C9443010C9443010C944301F0
:100080000C9443010C9443010C9443010C944301E0
:100090000C9443010C9443010C9443010C944301D0
:1000A0000C9443010C9443010C9443010C944301C0
:1000B0000C9443010C9443010C9443010C944301B0
:1000C0000C9443010C9443010C9443010C944301A0
:1000D0000C9443010C9443010C9443010C94430190
:1000E0000C944301FD0A0B0B140B1D0B2D0B470B3E
:1000F000630B4D126B127A12C412D312E9121E1343
:100100005A130C94630B0C94E9120C94FD0A0C9492
:10011000DD140C94470B0C94140B0C94D3120C9418
:100120002D0B0C947A120C946B120C94EB140C940F
:10013000A6160C94C4120C94FF140C947F150C9406
:100140005A130C941D0B0C941E130C94D0140C9485
:100150004D120C945D150C9403170C94B0160C946E
:100160000B0B0102102020080810204010204080B6
:10017000020102010804020101020408102040806B
:1001800080402010080402018004020180402010F9
:100190000804020108040201010204081020408042
:1001A0000102040810204080050505050705080820
:1001B0000808020202020A0A0808040404040101F1
:1001C0000101010101010303030303030303040706
:1001D00007070C0C0C0C0C0C0C0C0202020206069D
:1001E0000606060606060B0B0B0B0B0B0B0B000093
:1001F0002200250028002B002E00310034000201CF
:100200000000050108010B01000021002400270067
:100210002A002D0030003300010100000401070115
:100220000A01B01611241FBECFEFD1E2DEBFCDBF51
:1002300000E00CBF12E0A0E0B2E0E0EDF3E300E08C
:100240000BBF02C007900D92A434B107D9F724E088
:10025000A4E4B2E001C01D92A13EB207E1F712E0B2
:10026000C4E2D2E000E006C022970109FE010BBF04
:100270000E94AF19C232D10780E00807A9F70E9497
:10028000F4160C94E6190C9400002091440230916D
:100290004502382788E090E0A901440F551F37FF39
:1002A00006C09A0161E2262760E1362701C09A0163
:1002B000019791F7309345022093440208951092DC
:1002C00045021092440208958091440290914502A3
:1002D00008958091B402827F8F7E8093B40261E0A2
:1002E0008DE00E94971426E040E052EC61E070E05F
:1002F00084E494E00E94E4150E94AC070E948F02FF
:100300000E94E40B0C944C0A0F931F930E94660406
:100310000E9456080E94E01300914E0210914F0275
:100320002091500230915102601B710B820B930B94
:100330006135734C8105910568F00E94310C0E9473
:10034000E01360934E0270934F028093500290939B
:10035000510202C00E941A120E94E01360934602EA
:1003600070934702809348029093490220914A0279
:1003700030914B02621B730B7093530260935202D5
:10038000683883E1780730F488E893E1861B970B9F
:100390000E942B140E94E01360934A0270934B0258
:1003A00080934C0290934D021F910F9108958FEF0F
:1003B00090E02091BC0027FD05C00197D1F7109275
:1003C000BC00089508950F931F93CF93DF931F925E
:1003D000CDB7DEB70CEB10E094EAF8019083898387
:1003E0000E94D70189818093BB0084E8F801808353
:1003F0000F90DF91CF911F910F910C94D701109224
:10040000B9008CE08093B80084E08093BC0008952C
:10041000CF92DF92FF920F931F93CF93DF931F92A0
:100420001F92CDB7DEB7880F4A8369830E94E3012C
:100430000BEB10E06981F80160838CEBC82ED12CA6
:1004400094E8F92EF601F0820E94D7014A81F80162
:100450004083F601F0820E94D70184E9F60180838F
:100460000F900F90DF91CF911F910F91FF90DF9030
:10047000CF900895CF93C82F882311F084EC01C04A
:1004800084E88093BC000E94D7018091BB00C11119
:1004900003C094E99093BC00CF910895EF92FF922E
:1004A0000F931F93CF93DF9300D0CDB7DEB7182FF4
:1004B0007901880F4A835B8369830E94E301698124
:1004C0006093BB0084E88093BC000E94D701812F19
:1004D000880F81600E94E30181E0E81AF1084A81F7
:1004E000042F5B81152F8FEFE816F80671F081E07D
:1004F000E114F10409F480E00E943A02F8018193CA
:100500008F01F1E0EF1AF108EECF0F900F900F90EE
:10051000DF91CF911F910F91FF90EF9008950F936E
:100520001F93CF93DF9300D000D0CDB7DEB70E94EA
:10053000530D08E512E0CE0101960E94150F61E00F
:1005400070E080E090E00E9403140150110999F7D7
:1005500026960FB6F894DEBF0FBECDBFDF91CF91C8
:100560001F910F9108954F925F926F927F928F9299
:100570009F92AF92BF92CF92DF92EF92FF92CF9372
:10058000DF9300D01F92CDB7DEB76B017C0129014C
:100590003A010E942C184B015C01C301B2010E9478
:1005A0002C189B01AC01C501B4010E9491174B01AD
:1005B0005C01B701A601F7FE07C044275527BA0121
:1005C0004C195D096E097F09D301C20177FE07C08E
:1005D00088279927DC0184199509A609B7094817C6
:1005E00059076A077B078CF520E030E44FE054E4BC
:1005F000C501B4010E94B81869837A838B839C83F8
:1006000029E23CE54FE85EE3C501B4010E94B81859
:10061000A50194010E94B81820E030E040E85FE3B3
:100620000E942D179B01AC0169817A818B819C818D
:100630000E9491170E94F9179B0177FE31C0F7FCC9
:100640002DC09B01285F384F2BC020E030E44FE0E5
:1006500054E4C501B4010E94B8182B013C01A50166
:100660009401C501B4010E94B81829E23CE54FE8A5
:100670005EE30E942D179B01AC01C301B2010E94F1
:1006800091179B01AC0160E070E081E694E40E9468
:100690002C170E94F9179B01F7FE02C02850374023
:1006A000C9010F900F900F900F90DF91CF91FF90A5
:1006B000EF90DF90CF90BF90AF909F908F907F9002
:1006C0006F905F904F9008954F925F926F927F92DC
:1006D0008F929F92AF92BF92CF92DF92EF92FF9252
:1006E0004B015C01DC01CB01B595A79597958795EA
:1006F0003FEDC32E39E5D32E37E3E32E3FE5F32E4E
:10070000C81AD90AEA0AFB0A20E030E040E05FE3B9
:10071000C701B6010E94B8182B013C01A701960140
:10072000C501B4010E94B818A70196010E94B8182B
:100730009B01AC0160E070E080E490E40E942C1723
:100740009B01AC01C301B2010E94B818FF90EF9069
:10075000DF90CF90BF90AF909F908F907F906F90E1
:100760005F904F9008952F923F924F925F926F92B9
:100770007F928F929F92AF92BF92CF92DF92EF9231
:10078000FF920F931F93CF93DF9300D01F92CDB7AB
:10079000DEB78C011B01FC0180809180A280B380B8
:1007A000C480D580E680F78040845184628473845D
:1007B000FB012081318142815381C501B4010E9436
:1007C000B81869837A838B839C83F10124813581F6
:1007D00046815781C701B6010E94B8189B01AC0140
:1007E00069817A818B819C810E942D179B01AC01CC
:1007F000C301B2010E942C17F801608771878287BC
:100800009387F1012081318142815381C301B2017B
:100810000E94B81869837A838B839C83F1012085B9
:10082000318542855385C701B6010E94B8189B01E6
:10083000AC0169817A818B819C810E942C179B017C
:10084000AC01C501B4010E942D17F80160837183CA
:1008500082839383F1012481358146815781C301CD
:10086000B2010E94B8182B013C01F10120853185AD
:1008700042855385C501B4010E94B8189B01AC01A3
:10088000C301B2010E942D179B01AC01C701B60143
:100890000E942D17F80164837583868397830F90D8
:1008A0000F900F900F90DF91CF911F910F91FF90BC
:1008B000EF90DF90CF90BF90AF909F908F907F9000
:1008C0006F905F904F903F902F9008952F923F929E
:1008D0004F925F926F927F928F929F92AF92BF9250
:1008E000CF92DF92EF92FF920F931F93CF93DF93FC
:1008F000CDB7DEB76C970FB6F894DEBF0FBECDBF95
:1009000082EA92E00E94EB0F8EEA92E00E941211BE
:100910000E94E0136B017C0180915402909155027A
:10092000B601681B790B80E090E00E942A1829E14B
:1009300034E442E951E30E94B8182B013C01D09203
:100940005502C0925402CE0101965C0146E0842E0D
:1009500042E0942E06E912E0C12CD12C76011D86CE
:100960001C01D80152966D917C915397882777FD91
:100970008095982F0E942C18A30192010E94B8180C
:10098000F50161937193819391935F01F4018081EB
:100990009181A281B381AC01BD0124E07595679579
:1009A000579547952A95D1F7841B950BA60BB70B46
:1009B000F801408D518D662757FD6095762F840F85
:1009C000951FA61FB71FF40181939193A193B19333
:1009D0004F0134E0B595A795979587953A95D1F74E
:1009E000F801819391938F019C01DC010E9486198B
:1009F000C60ED71EE81EF91EFD85FF5FFD87F3308A
:100A000009F0AFCFB10180E892E00E94B303B101D9
:100A10008CE592E00E94B303A4E6B0E0A701960142
:100A20000E94A41920E030E044E050E00E946119E7
:100A3000490189E4881A9108E0E8EE2EE2E0FE2EF2
:100A4000F4E7AF2EF2E0BF2EACE5CA2EA2E0DA2E1C
:100A5000B8E62B2EB2E03B2E06E912E01D869CE3A1
:100A60008916910440F520E030E046E154E4D701D6
:100A70006D917D918D919C910E94B8182B013C0144
:100A8000F80160817181882777FD8095982F0E94F9
:100A90002C189B01AC01C301B2010E942D1720E06C
:100AA00037E14AED5AE30E94B818D7016D937D9360
:100AB0008D939C931397F70161917191819191911D
:100AC0007F010E94F917D5016D937D938D939D93BE
:100AD0005D0120E030E04AE753E4F6016081718176
:100AE000828193810E94B8182B013C01D8011C9689
:100AF0006D917C911D97882777FD8095982F0E9496
:100B00002C189B01AC01C301B2010E942D1720ECEF
:100B10003CE842E85BE30E94B818F60161937193E8
:100B2000819391936F010E94F917D1016D937D9389
:100B30008D939D931D01BD85BF5FBD870E5F1F4FC8
:100B4000B33009F08CCFC0907402D0907502E09061
:100B50007602F090770280917C0290917D02A091C4
:100B60007E02B0917F028D879E87AF87B88BA701E9
:100B70009601C701B6010E941B194B015C012D852E
:100B80003E854F855889CA01B9010E941B19860EFE
:100B9000971EA81EB91E409078025090790260906E
:100BA0007A0270907B02A3019201C301B2010E94FC
:100BB0001B19680D791D8A1D9B1D0E942C180E940F
:100BC0006403698B7A8B8B8B9C8B60938C02709304
:100BD0008D0280938E0290938F022D853E854F85E6
:100BE0005889C701B6010E94B30290939102809385
:100BF0009002C501B4010E942C184B015C010E94B7
:100C00006403A50194010E94B8180E94F9179B0182
:100C1000AC01C301B2010E94B3029093930280938E
:100C200092028091680290916902A0916A02B0914B
:100C30006B028D8B9E8BAF8BB88F809170029091E1
:100C40007102A0917202B0917302898F9A8FAB8F5B
:100C5000BC8F2091600230916102409162025091FC
:100C60006302C501B4010E94B8184B015C012D89D3
:100C70003E894F89588DC701B6010E941B192B016F
:100C80003C01298D3A8D4B8D5C8D6D857E858F85E0
:100C900098890E941B19460E571E681E791EC301B3
:100CA000B2010E942C18209184023091850240915B
:100CB0008602509187020E94B8189B01AC01C501C1
:100CC000B4010E942C1729893A894B895C890E94BA
:100CD000B8180E94F9174B015C01298D3A8D4B8D94
:100CE0005C8DC701B6010E941B196B017C012D8927
:100CF0003E894F89588D6D857E858F8598890E94A4
:100D00001B19C61AD70AE80AF90AA5019401C701F6
:100D1000B6010E94B3026AE070E00E942B19709342
:100D200095026093940288EA92E00E94150F8091E8
:100D3000A8029091A9029A8389838091AA02909136
:100D4000AB029C838B838091AC029091AD029E8319
:100D50008D838AE892E00E942B1488EA92E00E9438
:100D6000150F68EAC62E62E0D62EDE0111967D01CF
:100D7000E6E5F2E00CE912E040E073E0A72EB12CCA
:100D8000D6012D913D916D01D7018D919D917D01F0
:100D9000280F391F80819181820F931FB5010E9416
:100DA0002B19D8016D937D938D013595279521934E
:100DB00031934F5F433021F76C960FB6F894DEBF46
:100DC0000FBECDBFDF91CF911F910F91FF90EF909C
:100DD000DF90CF90BF90AF909F908F907F906F905B
:100DE0005F904F903F902F900895CF92DF92EF92B7
:100DF000FF920F931F93CF93DF931F92CDB7DEB770
:100E00008B016B01E82EF12CE61AF70A8C2D801B62
:100E1000841768F4B7016C0D7D1D8AE394E0498363
:100E20000E948F13F60181936F014981EFCF0F90DC
:100E3000DF91CF911F910F91FF90EF90DF90CF90B6
:100E40000895DF92EF92FF920F931F93CF93DF935A
:100E50008B01D42EEB01E82EF12CE61AF70A8C2F29
:100E6000801B8D1548F4B7016C0F7D1F49918AE3F3
:100E700094E00E949213F3CFDF91CF911F910F91D5
:100E8000FF90EF90DF900895EF92FF920F931F93E2
:100E9000CF93DF93CDB7DEB7EE970FB6F894DEBFF2
:100EA0000FBECDBF8CE3E5EBF2E0DE0111960190C1
:100EB0000D928A95E1F70E945F018E010F5F1F4F2F
:100EC0007E018DE3E80EF11CF80181918F010E94F3
:100ED00045010E151F05C1F70E9464019DAF8EAF3D
:100EE00042E0B80180E00E9421074CE3BE016F5F41
:100EF0007F4F84E00E942107EE960FB6F894DEBF84
:100F00000FBECDBFDF91CF911F910F91FF90EF905A
:100F10000895CF93DF93CDB7DEB7A6970FB6F894B9
:100F2000DEBF0FBECDBF46E2BE016F5F7F4F88ECD4
:100F30000E94F50686E2FE013196A7E1B3E001903A
:100F40000D928A95E1F7A6960FB6F894DEBF0FBE14
:100F5000CDBFDF91CF910895CF92DF92EF92FF92B4
:100F60000F931F93CF93DF93CDB7DEB7EE970FB6F6
:100F7000F894DEBF0FBECDBF6E018DE3C80ED11C4D
:100F800042E0B60180E00E94F5060DAD10E0102FA2
:100F900000278EAD082B4CE3BE016F5F7F4F84E0CE
:100FA0000E94F5060E945F01FE0131967F01F70164
:100FB00081917F010E944501EC14FD04C1F70E945C
:100FC00064010817190719F58CE3FE013196A5EBAA
:100FD000B2E001900D928A95E1F78091B4028860A9
:100FE0008093B4020E9489072F98479868EE73E0B7
:100FF00080E090E00E9403142F9A479A68EE73E015
:1010000080E090E00E9403142F9847981DC08091C3
:10101000B402877F8093B4021092E6021092E50238
:101020001092EC021092EB021092E8021092E7028A
:101030001092EE021092ED021092EA021092E90272
:101040001092F0021092EF02EE960FB6F894DEBF07
:101050000FBECDBFDF91CF911F910F91FF90EF9009
:10106000DF90CF900895CF93DF93CDB7DEB7A697EB
:101070000FB6F894DEBF0FBECDBF86E2E7E1F3E026
:10108000DE01119601900D928A95E1F746E2BE01CC
:101090006F5F7F4F88EC0E942107A6960FB6F894E9
:1010A000DEBF0FBECDBFDF91CF9108952F923F924B
:1010B0004F925F926F927F928F929F92AF92BF9268
:1010C000CF92DF92EF92FF920F931F93CF93DF9314
:1010D000A090EB03B090EC038CEDA81A85E0B80A61
:1010E0008091A8029091A902A81AB90AB50188278F
:1010F00077FD8095982F0E942C182091170330912E
:1011000018034091190350911A030E94B8180E94C5
:10111000F9176B017C0170930E0360930D036091CE
:101120000B0370910C036A0D7B1D40901B035090C4
:101130001C0360901D0370901E03C0913B03D0916F
:101140003C03002711270C1B1D0B6017710734F49B
:10115000B801882777FD8095982F0DC0C617D7074F
:1011600034F4BE01882777FD8095982F04C0882726
:1011700077FD8095982F0E942C189B01AC01C3012C
:10118000B2010E94B8180E94F9172B013C0170931C
:101190000C0360930B038091F5029091F602B50168
:1011A000681B790B882777FD8095982F0E942C1853
:1011B00020911F033091200340912103509122037D
:1011C0000E94B8180E94F91770930A0360930903EC
:1011D000B092F602A092F50242018C0C9D1C860E84
:1011E000971E9092080380920703A090ED03B090A1
:1011F000EE038CEDA81A85E0B80A8091AA029091BE
:10120000AB02A81AB90AB501882777FD8095982FF7
:101210000E942C1820912303309124034091250330
:10122000509126030E94B8180E94F9176B017C01A7
:1012300070930603609305036091030370910403A8
:101240006A0D7B1D4090270350902803609029036E
:1012500070902A036017710734F4B801882777FD6E
:101260008095982F0DC0C617D70734F4BE01882784
:1012700077FD8095982F04C0882777FD8095982F5B
:101280000E942C189B01AC01C301B2010E94B81846
:101290000E94F9172B013C01709304036093030330
:1012A0008091F3029091F402B501681B790B8827B5
:1012B00077FD8095982F0E942C1820912B03309158
:1012C0002C0340912D0350912E030E94B8180E94C8
:1012D000F9177093020360930103B092F402A09295
:1012E000F30212012C0C3D1C260E371E3092000317
:1012F0002092FF02A090EF03B090F0038CEDA81AAB
:1013000085E0B80A8091AC029091AD02A81AB90AA2
:10131000B501882777FD8095982F0E942C18209181
:101320002F033091300340913103509132030E94DA
:10133000B8180E94F9176B017C017093FE0260934C
:10134000FD028091FB029091FC028A0D9B1D409052
:101350003303509034036090350370903603801748
:10136000910734F4B801882777FD8095982F0EC037
:10137000C817D90734F4BE01882777FD8095982FC8
:1013800005C0BC01882777FD8095982F0E942C18F6
:101390009B01AC01C301B2010E94B8180E94F91769
:1013A0002B013C017093FC026093FB028091F102DF
:1013B0009091F202B501681B790B882777FD809523
:1013C000982F0E942C1820913703309138034091B8
:1013D000390350913A030E94B8180E94F91770938C
:1013E000FA026093F902B092F202A092F102C40CE8
:1013F000D51CC60ED71ED092F802C092F7024091BB
:10140000F1035091F2039101240F351F2C193D096E
:101410003093120320931103CA01881999098C0D86
:101420009D1D9093160380931503840E951E8C0CBE
:101430009D1C9092140380921303421953094C1976
:101440005D095093100340930F0330939D00209348
:101450009C0090939900809398009092A9008092AC
:10146000A80080910F039091100390939B008093AC
:101470009A00DF91CF911F910F91FF90EF90DF9035
:10148000CF90BF90AF909F908F907F906F905F9024
:101490004F903F902F900895CF93DF93C2E1D2E019
:1014A00061E089910E94971482E0C631D807C1F7A4
:1014B00080919000826080939000809190008E7F58
:1014C0008093900080919100806180939100809141
:1014D00091008D7F8093910080919600909197006C
:1014E0008F6F9F63909397008093960080919000F8
:1014F0008860809390008091900080688093900035
:101500008091A00082608093A0008091A0008E7FD7
:101510008093A0008091A10080618093A1008091C0
:10152000A1008D7F8093A1008091A6009091A700DB
:101530008F6F9F639093A7008093A6008091A00077
:1015400080688093A00080919000806280939000DA
:101550006CE271E080E090E0DF91CF910C94031495
:10156000DC01ED91FC910190F081E02D1994FC01DA
:10157000CA0140914303408340914203DB014C93F5
:10158000E4E4F3E04081D9014C93408150E065E40C
:1015900073E00C94C7196F927F929F92AF92BF92A3
:1015A000CF92DF92EF92FF920F931F93CF93DF932F
:1015B00099249394C5E0D0E004E010E033E0E32EFA
:1015C000F12C42E0C42ED12CAA24A394B12C84E4A3
:1015D00094E00E94D014892B09F485C084E494E03F
:1015E0000E94EB14E0913F03F0914003E730F105D6
:1015F00070F7EE58FF4F0C948019833241F78093B7
:1016000041030E945F0183E20E944501B0924003C2
:10161000A0923F03DCCF809342030E944501D09209
:101620004003C0923F03D3CF809343030E94450100
:10163000F0924003E0923F03CACF813428F0109229
:10164000400310923F03C3CF809344030E9445019F
:101650001093400300933F03BACFE0913E032091E3
:101660004403E21711F0211107C010923E03D093FA
:101670004003C0933F030BC091E09E0F90933E0345
:10168000F0E0EF5BFC4F84830E944501A0CF2091E6
:101690003D03211108C09927909386038093850309
:1016A00090923D0394CF213071F4982F8827209198
:1016B000850330918603822B932B9093860380932E
:1016C000850310923D031092400310923F036090F7
:1016D0008503709086030E9464016816790609F0FC
:1016E00076CF81E001C080E0DF91CF911F910F9113
:1016F000FF90EF90DF90CF90BF90AF909F907F9042
:101700006F900895CF92DF92EF92FF920F931F9305
:10171000CF93DF938C017B016A01E9010E945F0195
:10172000E0914404F09145040190F081E02D63E2E2
:1017300084E494E0199583E20E944501F7016081F9
:1017400084E494E00E947F15F70180810E944501A6
:10175000F801608184E494E00E947F15F8018081A3
:101760000E944501688184E494E00E947F1588818D
:101770000E944501F12C8881F81678F486010F0D3E
:10178000111DF801608184E494E00E947F15F80146
:1017900080810E944501F394EECF0E946401EC0128
:1017A000BC01772784E494E00E94B00A6D2F70E0BA
:1017B00084E494E0DF91CF911F910F91FF90EF901F
:1017C000DF90CF900C94B00AE7E0F1E080818E7F4B
:1017D0008083E8E0F1E0808181608083E8E6F0E0EA
:1017E000808184608083EDE6F0E080818160808389
:1017F00008950E94E01378942091D9033091DA0380
:10180000AB01421B530B9A017093DA036093D90327
:10181000293B5BE0350718F01092D80308954091FA
:10182000D803C901855893408331954050F448301E
:1018300040F4E42FF0E0EE0FFF1FEA5EFD4F31832E
:1018400020834F5F4093D80308952FB7F894E82F73
:10185000F0E0EE0FFF1FEA5EFD4F808191812FBF08
:101860000895AF92BF92CF92DF92EF92FF920F93C3
:101870001F93CF93DF938091D7038F5F843019F04C
:101880008093D70302C01092D70357E8C52E53E0C8
:10189000D52E07E913E0CBEDD3E0E12CF12CA0909D
:1018A000D703B12C8E2D0E94250CF701EE0FFF1FE0
:1018B000EE0FFF1FEA0DFB1DEE0FFF1FE956FC4F59
:1018C00091838083F8018681978122813381820F01
:1018D000931F20813181820F931F24813581820FD4
:1018E000931F02969695879596958795F601918315
:1018F000808328813981235031098217930728F486
:101900009C012E5F3F4F39832883288139812D5FC9
:101910003F4F2817390718F4029799838883FFEF00
:10192000EF1AFF0A82E0C80ED11C085F1F4F2296F3
:10193000E8E0EE16F10409F0B2CF8091DD0390915A
:10194000DE039093EE038093ED038091DB0390918F
:10195000DC039093EC038093EB038091E10390917F
:10196000E2039093F0038093EF038091DF03909163
:10197000E0039093F2038093F1038091E30390914D
:10198000E4039093F4038093F3038091E503909133
:10199000E6039093F6038093F5038091E70390911B
:1019A000E8039093F8038093F7038091E903909103
:1019B000EA039093FA038093F903DF91CF911F918B
:1019C0000F91FF90EF90DF90CF90BF90AF90089570
:1019D0001F920F920FB60F9211240BB60F922F93F6
:1019E0003F934F935F936F937F938F939F93AF93A7
:1019F000BF93EF93FF938091060180FD0E94F90B46
:101A0000FF91EF91BF91AF919F918F917F916F91D6
:101A10005F914F913F912F910F900BBE0F900FBE92
:101A20000F901F9018950F931F93CF93DF9300D0C3
:101A300000D0CDB7DEB78C018091390426E030E0CC
:101A4000AE014F5F5F4F882319F069E488E602C05A
:101A500063E08EE10E944E02898190E0982F8827F2
:101A60002A81822BF801918380838B8190E0982FCB
:101A700088272C81822B9195819591099583848368
:101A80008D8190E0982F88272E81822B93838283EB
:101A900026960FB6F894DEBF0FBECDBFDF91CF9173
:101AA0001F910F9108954F925F926F927F928F9244
:101AB0009F92AF92BF92CF92DF92EF92FF920F93DD
:101AC0001F93CF93DF93CDB7DEB72A970FB6F89465
:101AD000DEBF0FBECDBF0E94FF0140E86BE688E687
:101AE0000E94080265E070E080E090E00E9403142C
:101AF00043E06BE688E60E94080243E06AE188E67C
:101B00000E94080248E16BE188E60E94080242E078
:101B100067E388E60E94080262E370E080E090E0FC
:101B20000E94031441E160E08EE10E94080240E45B
:101B300061E08EE10E94080241E062E08EE10E94D5
:101B4000080264E670E080E090E00E940314CE0199
:101B500001960E94130D1AE0C12CD12C7601812C24
:101B6000912C5401412C512C320141E062E08EE174
:101B70000E94080264E670E080E090E00E94031496
:101B8000CE0101960E94130DE981FA81CF01AA27A7
:101B900097FDA095BA2F480E591E6A1E7B1E2B81F9
:101BA0003C81C901AA2797FDA095BA2F880E991EDE
:101BB000AA1EBB1E8D819E81AC01662757FD6095D4
:101BC000762FC40ED51EE61EF71EAC012817390766
:101BD0000CF4A901E417F50724F4E130F04FBCF050
:101BE00011C02817390734F481E02130304F44F018
:101BF00080E006C021E08130904F0CF020E0822F81
:101C0000811105C0115009F0B0CF01E001C000E022
:101C100042E160E08EE10E9408021AE041E062E0E9
:101C20008EE10E94080264E670E080E090E00E948D
:101C30000314CE0101960E94130DE981FA81CF01B0
:101C4000AA2797FDA095BA2F481A590A6A0A7B0A53
:101C50002B813C81C901AA2797FDA095BA2F881A2C
:101C6000990AAA0ABB0A8D819E81AC01662757FD9D
:101C70006095762FC41AD50AE60AF70AAC01281730
:101C800039070CF4A901E417F50724F4E130F04F0B
:101C9000B4F011C02817390734F481E02130304FF7
:101CA00044F080E006C021E08130904F0CF020E04D
:101CB000822F811104C0115009F0B0CF01C000E0A3
:101CC000C301B2010E942C189B01AC0160E070EAD4
:101CD00084E996E40E949117DC01CB01BF778093E1
:101CE000280290932902A0932A02B0932B02C501E7
:101CF000B4010E942C189B01AC0160E070EA84E9F9
:101D000096E40E949117DC01CB01BF7780932C02EF
:101D100090932D02A0932E02B0932F02C701B6011B
:101D20000E942C189B01AC0160E070E68AE896E402
:101D30000E949117DC01CB01BF7780933002909312
:101D40003102A0933202B093330240E760E08EE1AB
:101D50000E94080240E261E08EE10E94080240E039
:101D600062E08EE10E94080264E670E080E090E0AC
:101D70000E94031481E08093390401111CC080E0AB
:101D800090E0A0E8BFE38093280290932902A093FB
:101D90002A02B0932B0280932C0290932D02A093E1
:101DA0002E02B0932F028093300290933102A093C1
:101DB0003202B093330240E16CE188E60E940802EF
:101DC00040E26AE688E60E94080240E067E388E6AF
:101DD0000E9408024DE064E288E60E9408024EE993
:101DE00065E288E60E94080243E066E288E60E9417
:101DF000080246E867E288E60E9408022A960FB6C3
:101E0000F894DEBF0FBECDBFDF91CF911F910F9130
:101E1000FF90EF90DF90CF90BF90AF909F908F900A
:101E20007F906F905F904F900895AF92BF92CF9246
:101E3000DF92EF92FF920F931F93CF93DF9300D027
:101E400000D0CDB7DEB78C0126E030E0AE014F5FA9
:101E50005F4F63E488E60E944E02898190E0982FEC
:101E600088272A81822B9595879595958795D80106
:101E700013969C938E9312978B8190E0982F8827CE
:101E80002C81822B95958795959587959195819530
:101E9000910911969C938E938D8190E0982F8827BD
:101EA0002E81822B9595879595958795919581950E
:101EB000910915969C938E93149780912602909188
:101EC0002702892B09F450C0E5E2F4E0C80123E3BE
:101ED000A22E24E0B22E2091260230912702211555
:101EE000324021F41082118212821382DC014D9162
:101EF0005C911197662757FD6095762FC080D18041
:101F0000E280F3804C0D5D1D6E1D7F1D419351934A
:101F1000619371931D921D92CD01D50111961C9272
:101F20001E9220912602309127022130310571F452
:101F30005F5F6F4F7F4F032E39E07595679557951B
:101F400047953A95D1F7302D4D935C93B2E0AB0EA7
:101F5000B11C44E0E133F40709F0BDCF2150310951
:101F6000309327022093260263E374E0AFE1B4E0EC
:101F7000FB0181919191BF01F80120813181281BE2
:101F8000390B4D915C911197CA01805293402817EB
:101F9000390734F0805C994F281739070CF4C901D0
:101FA000F801819391938F018D939D93F4E06933B0
:101FB0007F07F1F626960FB6F894DEBF0FBECDBFB1
:101FC000DF91CF911F910F91FF90EF90DF90CF9015
:101FD000BF90AF9008950F931F93CF93DF93EC01C1
:101FE0000E94E01360931B0470931C0480931D04F3
:101FF00090931E0400911704109118042091190465
:1020000030911A04601771078207930708F405C11D
:10201000DC01CB0180569947AE4FBF4F8093170428
:1020200090931804A0931904B0931A04CE010E944F
:10203000130D68817981882777FD8095982F0E94FC
:102040002C18209128023091290240912A025091A7
:102050002B020E94B8180E94F917798368836A815D
:102060007B81882777FD8095982F0E942C182091DE
:102070002C0230912D0240912E0250912F020E948D
:10208000B8180E94F9177B836A836C817D81882749
:1020900077FD8095982F0E942C1820913002309166
:1020A000310240913202509133020E94B8180E94CE
:1020B000F9177D836C838091B40282FF2EC040911A
:1020C0001704509118046091190470911A044093F8
:1020D0001304509314046093150470931604EBEEEC
:1020E000F2E0AE012DE034E067E074E0119211926D
:1020F000DA018D919D91AD01D9018D939D939D0143
:10210000DB018D939D93BD01B2E0E13FFB0771F7C9
:102110008091B4028B7F8093B4028091390488232C
:10212000F1F0888199812091EB023091EC02821BC1
:10213000930B998388838A819B812091ED02309152
:10214000EE02821B930B9B838A838C819D8120915D
:10215000EF023091F002821B930B9D838C830091E0
:1021600013041091140420911504309116040115E4
:1021700011052105310509F450C040911704509113
:1021800018046091190470911A04401B510B620BE2
:10219000730B4038534C694C7140F8F4EDE0F4E0B7
:1021A000A7E0B4E08991999120813181821793074A
:1021B00014F4918380832D913C911197281739074E
:1021C0001CF411969C938E933296129684E0E33120
:1021D000F80741F71F9A379A20C010921304109203
:1021E00014041092150410921604EDE0F4E0C7E018
:1021F000D4E0ABEEB2E08191919129913991820FB7
:10220000931F959587958D939D9384E0E331F8070F
:1022100091F70E9444072F984798DF91CF911F9123
:102220000F910895EF92FF920F931F93CF93DF9337
:1022300000D000D0CDB7DEB78C0126E030E0AE0193
:102240004F5F5F4F6BE388E60E944E02898190E00A
:10225000982F88272A81822B23E0959587952A95A8
:10226000E1F7D80111969C938E938B8190E0982F83
:1022700088272C81822B43E0959587954A95E1F735
:1022800013969C938E9312978D8190E0982F8827B8
:102290002E81822B63E0959587956A95E1F71596D7
:1022A0009C938E9314972091B40220FF0AC080E083
:1022B00092E09093320480933104822F8E7F80933A
:1022C000B4028091310490913204892B09F486C0C4
:1022D000EBEFF3E09801A5EEEA2EA2E0FA2E809152
:1022E0003104909132048115924021F410821182C0
:1022F00012821382D9014D915C91662757FD60953A
:10230000762F80819181A281B381840F951FA61FB2
:10231000B71F81939193A193B193D9011D921D92FF
:102320009D01D7011D921D927D01B4E0E730FB07AE
:10233000B1F68091310490913204019709F045C0C3
:102340008091FB039091FC03A091FD03B091FE03EB
:102350009F5FAF4FBF4F29E0B595A795979587959C
:102360002A95D1F79093E6028093E5028091FF03CE
:1023700090910004A0910104B09102049F5FAF4FBF
:10238000BF4F39E0B595A795979587953A95D1F7C1
:102390009093E8028093E702409103045091040473
:1023A00060910504709106045F5F6F4F7F4FE9E015
:1023B0007595679557954795EA95D1F75250509383
:1023C000EA024093E9020E9444078091310490910F
:1023D000320401979093320480933104F801808194
:1023E00091812091E5023091E602821B930B91834B
:1023F0008083828193812091E7023091E802821BE1
:10240000930B93838283848195812091E90230919B
:10241000EA02821B930B9583848326960FB6F89469
:10242000DEBF0FBECDBFDF91CF911F910F91FF9007
:10243000EF900895EF92FF920F931F93CF93DF9346
:10244000CDB7DEB7C655D1090FB6F894DEBF0FBEC3
:10245000CDBF0DB71EB70E94CB0A882309F44CC12B
:102460009E012C5A3F4FAE014F5F5F4FBE016B5A2A
:102470007F4FCE018A5A9F4F0E94B70A67968FAD51
:10248000679790E0FC01E156F109E830F10508F0AA
:1024900033C1E758FF4F0C948019EDB6FEB68EE1BC
:1024A00063968FAF63972DB73EB72E5131090FB6A4
:1024B000F8943EBF0FBE2DBF4DB75EB74F5F5F4F65
:1024C00091E662969FAF629797E722969FAF229719
:1024D000E6E9F2E043C086E064968FAF649792E647
:1024E00063969FAF639797E762969FAF6297E0E925
:1024F000F2E067C066968FAD6697873791F4659670
:102500004FAD659750E0BE016F5F7F4F87E193E06D
:102510000E94C7190E94330864961FAE649783E631
:10252000A1C0EDB6FEB686E263968FAF63972DB776
:102530003EB7265231090FB6F8943EBF0FBE2DBFED
:102540004DB75EB74F5F5F4F93E662969FAF62975E
:1025500097E722969FAF2297E7E1F3E0DA01019037
:102560000D928A95E1F79E012E5A3F4FBE016F5B97
:102570007F4FCE018F5A9F4F0E94820B0FB6F89467
:10258000FEBE0FBEEDBEB8C080E164968FAF64970B
:1025900094E663969FAF639797E762969FAF6297C3
:1025A000EBEEF3E00EC088E064968FAF649795E69B
:1025B00063969FAF639797E762969FAF6297EFE04E
:1025C000F3E0DE01AF5BBF4F01900D928A95E1F71A
:1025D00085C066968FAD6697873791F465964FAD47
:1025E000659750E0BE016F5F7F4F85EB92E00E94E0
:1025F000C7190E94440764961FAE649786E632C0EE
:10260000EDB6FEB68CE363968FAF63972DB73EB7FA
:102610002C5331090FB6F8943EBF0FBE2DBF4DB7F6
:102620005EB74F5F5F4F96E662969FAF629797E700
:1026300022969FAF2297E5EBF2E090CF66968FADA2
:102640006697873729F565964FAD659750E0BE01CF
:102650006F5F7F4F84EB92E00E94C71964961FAEB4
:10266000649787E662968FAF629781E622968FAF76
:1026700022979E012D5A3F4FAE014E5A5F4FBE0129
:102680006F5B7F4FCE018F5A9F4F0E94820B34C0E9
:1026900081E064968FAF649787E663968FAF639708
:1026A00087E762968FAF62978091B40222968FAFD0
:1026B000229714C082E064968FAF649788E6639691
:1026C0008FAF639787E762968FAF629780915202D0
:1026D0009091530223969FAF8EAF23979E012D5A60
:1026E0003F4FAE014F5B5F4FBE016F5A7F4FCE0130
:1026F0008E5A9F4F0E94820B0FB6F8941EBF0FBEDA
:102700000DBFCA5ADF4F0FB6F894DEBF0FBECDBF64
:10271000DF91CF911F910F91FF90EF900895CB0122
:102720000C94D019CB01642F0C94D8191F920F92DE
:102730000FB60F9211242F933F938F939F93AF93D4
:10274000BF9380913C0490913D04A0913E04B091D0
:102750003F0430913B0423E0230F2D3720F40196F2
:10276000A11DB11D05C026E8230F0296A11DB11DB4
:1027700020933B0480933C0490933D04A0933E043B
:10278000B0933F048091400490914104A091420491
:10279000B09143040196A11DB11D80934004909314
:1027A0004104A0934204B0934304BF91AF919F9121
:1027B0008F913F912F910F900FBE0F901F90189502
:1027C0003FB7F8948091400490914104A091420455
:1027D000B091430426B5A89B05C02F3F19F0019680
:1027E000A11DB11D3FBF6627782F892F9A2F620F39
:1027F000711D811D911D42E0660F771F881F991F73
:102800004A95D1F70895CF92DF92EF92FF92CF933E
:10281000DF936B017C010E94E013EB01C114D10432
:10282000E104F10489F00E942B170E94E0136C1B55
:102830007D0B683E734090F381E0C81AD108E1082F
:10284000F108C851DC4FEACFDF91CF91FF90EF90B4
:10285000DF90CF900895019739F0880F991F880F66
:10286000991F02970197F1F70895789484B58260D3
:1028700084BD84B5816084BD85B5826085BD85B524
:10288000816085BDEEE6F0E0808181608083E1E8D3
:10289000F0E010828081826080838081816080830B
:1028A000E0E8F0E0808181608083E1EBF0E080810E
:1028B00084608083E0EBF0E0808181608083E1E9E7
:1028C000F0E0808182608083808181608083E0E9A4
:1028D000F0E0808181608083E1EAF0E080818260C5
:1028E0008083808181608083E0EAF0E08081816084
:1028F0008083E1E2F1E08081826080838081816079
:102900008083E0E2F1E0808181608083EAE7F0E0AB
:102910008081846080838081826080838081816007
:1029200080838081806880831092C1000895CF9356
:10293000DF9390E0FC01EE59FE4F2491FC01E85535
:10294000FE4F8491882349F190E0880F991FFC0184
:10295000E85FFD4FA591B49182519E4FFC01C59156
:10296000D4919FB7611108C0F8948C91209582236F
:102970008C93888182230AC0623051F4F8948C9140
:10298000322F309583238C938881822B888304C0D7
:10299000F8948C91822B8C939FBFDF91CF910895F7
:1029A000FC01818D228D90E0805C9F4F821B9109FC
:1029B00060E470E00E942B190895FC01918D828DD6
:1029C000981731F0828DE80FF11D858D90E0089504
:1029D0008FEF9FEF0895FC01918D828D981761F024
:1029E000828DDF01A80FB11D5D968C91928D9F5F46
:1029F0009F73928F90E008958FEF9FEF089586EA7E
:102A000096E1892B41F080E090E0892B21F00E9433
:102A1000A616811125C080E090E0892B41F080E06E
:102A200090E0892B21F00E94000081111CC080E001
:102A300090E0892B41F080E090E0892B21F00E940A
:102A40000000811113C080E090E0892BA1F080E0AC
:102A500090E0892B81F00E94000081110AC0089546
:102A60000E940000D8CF0E940000E1CF0E94000029
:102A7000EACF0C9400000895FC01848DDF01A80FBB
:102A8000B11DA35ABF4F2C91848D90E001968F7396
:102A90009927848FA689B7892C93A089B1898C91B5
:102AA00080648C93938D848D981306C00288F3897B
:102AB000E02D80818F7D80830895CF93DF93EC019B
:102AC000888D8823C9F0EA89FB89808185FD05C04E
:102AD000A889B9898C9186FD0FC00FB607FCF5CF88
:102AE000808185FFF2CFA889B9898C9185FFEDCFD0
:102AF000CE010E943C15E7CFDF91CF910895CF9290
:102B0000DF92FF920F931F93CF93DF931F92CDB766
:102B1000DEB76C01DC015B969C915B975C968C91B7
:102B20005C97981307C05096ED91FC915197808166
:102B300085FD32C0F601038D10E00F5F1F4F0F734C
:102B40001127F02EF601848DF81211C00FB607FC84
:102B5000F9CFD6015096ED91FC915197808185FF78
:102B6000F1CFC60169830E943C156981EBCF838D4B
:102B7000E80FF11DE35AFF4F6083D6015B960C937B
:102B80005B975296ED91FC91539780818062808390
:102B900081E058968C930DC0D6015696ED91FC912C
:102BA000579760835096ED91FC9151978081806496
:102BB000808381E090E00F90DF91CF911F910F9182
:102BC000FF90DF90CF900895BF92CF92DF92EF9267
:102BD000FF92CF93DF93EC016A017B01B22EE8896B
:102BE000F98982E08083411581EE580761057105FE
:102BF000A1F060E079E08DE390E0A70196010E94EA
:102C00003F1921503109410951095695479537958A
:102C10002795211580E1380798F0E889F989108215
:102C200060E874E88EE190E0A70196010E943F19E8
:102C300021503109410951095695479537952795F6
:102C4000EC85FD853083EE85FF852083188EEC8929
:102C5000FD89B082EA89FB89808180618083EA896D
:102C6000FB89808188608083EA89FB898081806814
:102C70008083EA89FB8980818F7D8083DF91CF917A
:102C8000FF90EF90DF90CF90BF9008951F920F922A
:102C90000FB60F9211240BB60F922F938F939F9321
:102CA000EF93FF93E0915404F09155048081E091FB
:102CB0005A04F0915B0482FD12C0908180915D0402
:102CC0008F5F8F7320915E04821751F0E0915D0455
:102CD000F0E0EC5BFB4F958F80935D0401C0808139
:102CE000FF91EF919F918F912F910F900BBE0F90BD
:102CF0000FBE0F901F9018951F920F920FB60F9254
:102D000011240BB60F922F933F934F935F936F93C2
:102D10007F938F939F93AF93BF93EF93FF9384E43D
:102D200094E00E943C15FF91EF91BF91AF919F916C
:102D30008F917F916F915F914F913F912F910F9064
:102D40000BBE0F900FBE0F901F90189584E494E077
:102D50000E94D01421E0892B09F420E0822F0895ED
:102D6000109247041092460488EE93E0A0E0B0E091
:102D70008093480490934904A0934A04B0934B0471
:102D800088E392E0909345048093440485EC90E0BE
:102D9000909351048093500484EC90E090935304FA
:102DA0008093520480EC90E09093550480935404F7
:102DB00081EC90E0909357048093560482EC90E06D
:102DC000909359048093580486EC90E090935B04B0
:102DD00080935A0410925D0410925E0410925F0476
:102DE00010926004089508950E9435140E94F3160D
:102DF0000E946901CFEFD4E10E9484012097E1F3A2
:102E00000E94FF14F9CFCF92DF92EF92FF920F93BF
:102E10001F93CF93DF936C017A01EB01E60EF71E4F
:102E200000E010E0CE15DF0561F06991D601ED916B
:102E3000FC910190F081E02DC6011995080F191F32
:102E4000F1CFC801DF91CF911F910F91FF90EF90CB
:102E5000DF90CF90089508955058BB27AA270ED031
:102E60004DC13ED130F043D120F031F49F3F11F4F9
:102E70001EF433C10EF4E095E7FB29C1E92F4FD1D1
:102E800080F3BA17620773078407950718F071F487
:102E90009EF567C10EF4E0950B2EBA2FA02D0B0105
:102EA000B90190010C01CA01A0011124FF27591B8F
:102EB00099F0593F50F4503E68F11A16F040A22F95
:102EC000232F342F4427585FF3CF46953795279506
:102ED000A795F0405395C9F77EF41F16BA0B620B05
:102EE000730B840BBAF09150A1F0FF0FBB1F661F4C
:102EF000771F881FC2F70EC0BA0F621F731F841F8F
:102F000048F4879577956795B795F7959E3F08F0B4
:102F1000B3CF9395880F08F09927EE0F9795879573
:102F200008950CD0EBC0E3D040F0DAD030F021F4BB
:102F30005F3F19F0CCC0511115C1CFC0F0D098F34C
:102F40009923C9F35523B1F3951B550BBB27AA272A
:102F500062177307840738F09F5F5F4F220F331F9C
:102F6000441FAA1FA9F333D00E2E3AF0E0E830D068
:102F700091505040E695001CCAF729D0FE2F27D06B
:102F8000660F771F881FBB1F261737074807AB0739
:102F9000B0E809F0BB0B802DBF01FF2793585F4FAE
:102FA0002AF09E3F510568F092C0DCC05F3FECF311
:102FB000983EDCF3869577956795B795F7959F5F73
:102FC000C9F7880F911D9695879597F90895E1E0C7
:102FD000660F771F881FBB1F621773078407BA0726
:102FE00020F0621B730B840BBA0BEE1F88F7E09581
:102FF000089504D06894B111B5C0089598D088F0B0
:103000009F5790F0B92F9927B751A0F0D1F0660FD4
:10301000771F881F991F1AF0BA95C9F712C0B130EF
:1030200081F09FD0B1E008959CC0672F782F88274A
:10303000B85F39F0B93FCCF3869577956795B3952E
:10304000D9F73EF490958095709561957F4F8F4F9D
:103050009F4F0895E89409C097FB3EF490958095A2
:10306000709561957F4F8F4F9F4F9923A9F0F92F4E
:1030700096E9BB279395F695879577956795B795CC
:10308000F111F8CFFAF4BB0F11F460FF1BC06F5FB2
:103090007F4F8F4F9F4F16C0882311F096E911C0C4
:1030A000772321F09EE8872F762F05C0662371F0E5
:1030B00096E8862F70E060E02AF09A95660F771FF9
:1030C000881FDAF7880F9695879597F9089597F9ED
:1030D0009F6780E870E060E008959FEF80EC0895BE
:1030E00000240A94161617061806090608950024E7
:1030F0000A9412161306140605060895092E039461
:10310000000C11F4882352F0BB0F40F4BF2B11F4D4
:1031100060FF04C06F5F7F4F8F4F9F4F089557FD33
:103120009058440F551F59F05F3F71F04795880F35
:1031300097FB991F61F09F3F79F0879508951216CC
:1031400013061406551FF2CF4695F1DF08C0161678
:1031500017061806991FF1CF869571056105089429
:103160000895E894BB2766277727CB0197F9089540
:103170000BD0C4CFB5DF28F0BADF18F0952309F0E3
:10318000A6CFABCF1124EECFCADFA0F3959FD1F32A
:10319000950F50E0551F629FF001729FBB27F00D05
:1031A000B11D639FAA27F00DB11DAA1F649F66275A
:1031B000B00DA11D661F829F2227B00DA11D621FA9
:1031C000739FB00DA11D621F839FA00D611D221F63
:1031D000749F3327A00D611D231F849F600D211D47
:1031E000822F762F6A2F11249F5750408AF0E1F0EA
:1031F00088234AF0EE0FFF1FBB1F661F771F881F33
:1032000091505040A9F79E3F510570F060CFAACF72
:103210005F3FECF3983EDCF3869577956795B7951D
:10322000F795E7959F5FC1F7FE2B880F911D969547
:10323000879597F90895DB018F939F930E94A419B6
:10324000BF91AF91A29F800D911DA39F900DB29F42
:10325000900D1124089597FB072E16F4009407D0C3
:1032600077FD09D00E94B31907FC05D03EF4909574
:1032700081959F4F0895709561957F4F0895A1E2C4
:103280001A2EAA1BBB1BFD010DC0AA1FBB1FEE1FE0
:10329000FF1FA217B307E407F50720F0A21BB30B2B
:1032A000E40BF50B661F771F881F991F1A9469F7A7
:1032B00060957095809590959B01AC01BD01CF0103
:1032C0000895052E97FB1EF400940E94781957FD6F
:1032D00007D00E943F1907FC03D04EF40C947819D4
:1032E00050954095309521953F4F4F4F5F4F089532
:1032F00090958095709561957F4F8F4F9F4F089562
:10330000EE0FFF1F0590F491E02D19940E948E1985
:10331000332312F48A1B9B0B0C949F19A29FB001BC
:10332000B39FC001A39F700D811D1124911DB29FF9
:10333000700D811D1124911D08950E948E19B7FFF3
:103340000895821B930B08950E948E19A59F900DDE
:10335000B49F900DA49F800D911D11240895079096
:10336000F691E02D1994AA1BBB1B51E107C0AA1FBF
:10337000BB1FA617B70710F0A61BB70B881F991F16
:103380005A95A9F780959095BC01CD010895FB0150
:10339000DC0102C001900D9241505040D8F70895D1
:1033A000F999FECF92BD81BDF89A992780B508950D
:1033B000262FF999FECF1FBA92BD81BD20BD0FB651
:1033C000F894FA9AF99A0FBE01960895F894FFCFEF
:1033D0000000E10480000000000000000000010087
:1033E000000003050602DE05DE05DE05DE05DE055E
:1033F000DE05DE05DE0500020000803F0000803FA4
:103400000000803F000000007F150317D014EB146C
:04341000DD145D1555
:00000001FF
